:160100001A0F0A44414420322E30340070737420007374616200E8
:06000000025D6D02011615
:030013000201AD3A
:03004B000201B9F6
:030053000201E0C7
:03005B000202207E
:0300630002047E16
:03006B0002047E0E
:0300430002047E36
:03000B0002022FBF
:03001B0002026975
:03002B000202CE00
:0300330002036F56
:030023000203DDF8
:030083000204274D
:20011600C0E0C0D0C082C083D2D3D2D412047F78F2861E08861F78D7E6C39EFC08E6C39F97
:2001360020E7387005BC14004031D21478D7E6C39E900171F0A61E08A3E69FF0A61F301855
:200156001A78DDB6FF1A900172E07012900171E0B43200500990013F7400F00201A4760074
:20017600B60805C2180201A490010DE0B42800501D04F0232582F582EEF0A3EFF078DDE68E
:200196002324DEF9900171E0F709A3E0F706D083D082D0D0D0E032302706C227C281C2CD8A
:2001B600C22732C0E0C0D0C082C083C2B974FA126A40C28C1202078E8A8F8CD28CC28DD299
:2001D600A9D083D082D0D0D0E032C0E0C0D0C082C083C2BA74FA126A5DC28E1202078E8B3D
:2001F6008F8DD28EC28FD2ABD083D082D0D0D0E032D2D3D2D490021FE0FA7FFF7EFFC3EEF6
:2002160094F4FEEF9401FFDAF522C28E758B9C758DFFD28EC28FD2AB32C0E0C0D0C082C04F
:2002360083D2D3D2D4C2A930DA1D309211C28C758A57758C9ED28CC28DD2A9020260C2DA0A
:20025600C2C1D2B9020260126ABAD083D082D0D0D0E032C0E0C0D0C082C083D2D3D2D4C2F7
:20027600AB20432630DB1D309311C28E758B58758D9ED28EC28FD2AB0202C5C2DBC2C2D206
:20029600BA0202C5126AD60202C530942230181F12047F78F2861E08861F90013FE0B42881
:2002B60000500C04F0232582F582EEF0A3EFF0D083D082D0D0D0E032C0E0C0F0C0D0C082EE
:2002D600C083D2D3D2D453AEEF75AA1875ACFC43AE1012047F306A0D900023AEA17F04E094
:2002F600CEF0A3DFFA30620D90001FAEA37F04E0CEF0A3DFFAE5646009141430E70274000B
:20031600F564E5656009141430E7027400F565E53160021531E53260021532E57E60021554
:200336007ED5302A7530057F0C7833E6600214F608DFF8D53F18753F64D5400375403C306C
:20035600210C0541E541B43C057541000543D083D082D0D0D0F0D0E032C0E0C0F0C0D0C074
:2003760082C083D2D3D2D4C2BE30225012047F53AEBF75AB1875ADFC43AE40C2C7D2BEE55B
:20039600CAAEC9B5CAF9FF302506631EFF631FFF9000BDE0FCEEF0A3E0FDEFF0EEC39CFC84
:2003B600EF9DFDC22330E705D223631CFF9000BFECF078F2861E08861F122605D083D08262
:2003D600D0D0D0F0D0E032C0E0C0D0C082C083309808C298E599900000F030992BC299D2C7
:2003F60070207124D57006D57103757105E571142478F583857082E0F599C270E570B56E36
:2004160007E571B56F02D271D083D082D0D0D0E032C0E0C0D0C082C083C0F0859BF030F044
:200436000BC2F085F09BE59C900000F030F12EC2F185F09BD273207124D57006D5710375C3
:200456007105E571142478F583857082E0F59CC273E570B56E07E571B56F02D271D0F0D0A7
:2004760083D082D0D0D0E03232E5CAACC9B5CAF9302505631CFF64FFC313FDEC13FCEDC388
:2004960013FDEC13FC78F0C3EC96FEA61C08ED96FFA61D54F0B4C0030204B4B43003631FA3
:2004B600C0A2BEC0D0C2BE78F2E62EF608E63FF6D0D092BE22900000E0700122FF7400F0E7
:2004D600EF20E712900006F0B43000500122B43A0050FA020602B49700400122C3C2E723A2
:2004F600239004FB730206CB000206CE000206D1000206D4000206D7000206C80002057538
:2005160000020557000206DD00020588000206C5000205CD00020665000206BE000206C156
:20053600000206840002065D000205FC000205FF000206BE000206C1000206DA000206E052
:2005560000E5446003D25822205808D25874201207F1229000077402F0741D1207F1222069
:200576007F03D27F22C258741D1207F1741C1207F122121AC1E544701DE54520E711205E9C
:200596000ED25E9000097400F0120A950205BAC25E74010205B1B401127402120852900012
:2005B600097481F07546FF7549FF2274001208529000097480F022D25AD25F900009E02029
:2005D600E70122547FF0784A28F890001EE0FE90000BE0B506004005C39EF54622F690000B
:2005F60008E0D2E7F022D25C22D25D22C25FD219540FFC7D0075A00078027903E2F3FE7952
:2006160001E320E702F2FDECF37F001DBDFF028004240A80F61EBEFF028007246450F60F46
:2006360080F37804F2F516EF7905F322C21974FF900001F07400900002F0900003F090005E
:2006560005F0900004F02212064275160080DCD24CC24D900009E070012290000BE0700183
:200676002290000CE014F090000BE0148023D24DC24C900009E0700122900019E0FF90003F
:200696000BE0B507012290000CE004F090000BE004F07406120968740112096890000BE02B
:2006B6000412096812064222D27A22D27B2222D25022D25122D25222D25322D25422D2559D
:2006D60022D25622D25722B25B22D23A22740E120968740112096822740E12096874021244
:2006F600096822740E120968740312096822740E120968740412096822740E120968740590
:2007160012096822740D120968740112096822740D120968740212096822740D1209687469
:200736000312096822740D120968740412096822740D1209687405120968227410120968B1
:200756007401120968227410120968740212096890000B7400F022741012096874031209AF
:20077600682274101209687404120968227410120968740512096822740F12096874011203
:20079600096822740D12096874051209687419120968740F120968740512096822741A12DC
:2007B6000968EE120968EF12096822C0D0C2D3D2D4FF1206E31208ECD0D022C0D0C2D3D229
:2007D600D4FF1206EE1208ECD0D022C0D0C2D3D2D4FF1206F91208ECD0D022C0D0C2D3D2C8
:2007F600D4FF1206E31208EC1206F91208ECD0D022C0D0C2D3D2D41208EBD0D022C0D0C252
:20081600D3D2D4FF90000B7400F0801EC0D0C2D3D2D4D2E7FF1207511206E3741A120968B4
:200836007401120968740112096890001A1208C390001AEEF0900019F0D0D022C0D0C2D323
:20085600D2D4FF1206EE12075C90000B7400F090001B1208C390001BEEF0900019F0900029
:200876001EEDF0BE0F02800D742012096874021209680E80EE120799D0D022C0D0C2D3D214
:20089600D4FF90001C1208C390001CEEF0900019F0D0D022C0D0C2D3D2D4FF90001D120870
:2008B600C390001DEEF0900019F0D0D022E0900019F01208EC900008E0C2E7F0900019E060
:2008D600C39E6002500122FB74201209687402120968DBF422FF9047217C00EF30E704C291
:2008F600E77CFF232582F58274003583F583740093FAA3740093F5828A837E007DFFEC6026
:2009160017EEB54C03020926400E12095A02092EB54D00400312095A740093A3B4FE0874F9
:20093600020E12096880D7203A0AB4850280E9B4860280E4B4FF04EEFD80DD70021E22124C
:20095600096880D47B09740093A3B4FEF9DBF77C0022303A34C2AC30710A307007C270F5EE
:2009760099D2AC22C082C083C0E0C271D56E06D56F03756F05E56F142478F583856E82D096
:20099600E0F0D083D082D2AC22C2AE30710A307307C273F59CD2AE22C082C083C0E0C271A7
:2009B600D56E06D56F03756F05E56F142478F583856E82D0E0F0D083D082D2AE22C0D0C27E
:2009D600D3D2D4900A01232582F58274003583F583740093FAA3740093F5828A83740093D2
:2009F600A37003D0D02212096880F20A050A540F010D0111010837081107103110110D1891
:200A16002B1811012D372D110D402B4011074831481101503750110108015011071007486D
:200A3600110D180D40111C081C50112B182B40113110314811370837500605060300C0D077
:200A5600C2D3D2D4E5447034203A2012071A741B12096874DE1209687410120968741C123B
:200A7600096878B1E6120968D0D0227480120968740412096878B1E604120968D0D02220B1
:200A96003A0B12071A74001209D3020AB7740512096874801209687403120968742912097E
:200AB60068120A5420760D1206F912076D7E1D7F04020AD41206E31207517E1D7F0912076F
:200AD600B3E543121CF1121D64742E120968E541121CF1121D93120A5412078E2274101278
:200AF60008132274111208911249CF30740874321208EB020B1174341208EB3075087433D3
:200B16001208EB020B2174351208EB900224E020E312900205E030E00674371208EB227460
:200B3600361208EB22E54430E725B54703020B5CF547F54AF545F54B754800900009748036
:200B5600F07400120852305A05C25A854A44222323900B6B73020B7300020D1E00E5453009
:200B7600E727B54803020B96F548F54B740090000BF07481900009F07401120852C25A2295
:200B9600305A05C25A854B4522305016C25020740AD27474321208EB020BB8C27474341271
:200BB60008EB305116C25120750AD27574331208EB020BD1C27574351208EB900224E02077
:200BD600E31C305219C252900205E0B2E0F030E00874371208EB020BF474361208EB900050
:200BF60009E06003020C5C207652305626E536B40B05C256020C295005C25A7536A0305A21
:200C160012C25AC2567536009002117400F0A3F01249CF305526E536B40B05C255020C5208
:200C36005005C25A7536A0305A12C25AC25575360090020F7400F0A3F01249CF305707C256
:200C560057B276120A95E5452323900C6473020C6C00020CC100E54BB54503020C79F54633
:200C7600020CA8B54803020CA8F548E544702220760912076D1206F9020C9712075112069D
:200C9600E312078ED2589000097400F0741F1207F122307701227555007545FF7544FF7554
:200CB6004700754800753E00C2CD22E54BB54503020CCCF54522B54803020CF2F548D2390B
:200CD60078B176007400900007F0900009F0120AF3120A95D258D25E75550122900008E05C
:200CF60020E70122C2E7F0D25E121AC19000097400F020760912076D1206F9020D1A120789
:200D1600511206E312078E22E54530E72CB54803020D46F548F54B740090000BF0748190E5
:200D36000009F07402120852121AC1C25AC23922305A05C25A854B45222323900D5573020D
:200D56000C6C00020D6100020E4400E54BB54503020D79E54C700C755500854B45741C125E
:200D760006EE22E545B54803020DB9303804121AE722F548740090000BF0740190000AF079
:200D9600754C00754E00756700756600752500754D01755C1C7555021206E37401120968F9
:200DB60012079930500CC250207405D274020DC8C27430510CC251207505D275020DD7C2B8
:200DD60075900009E0C39402505C90000AE020E70CC3954C700D90000BE0F54E2290000BE1
:200DF600E54EF0E54C90000AF07401900009F07412120822741A1209687402120968E54C04
:200E160004120968743D120968743D120968743E1209687406120968740112096890000B08
:200E3600E0041209682290000AE04480F022E54BB54503020E67302209755000C2BEC2229B
:200E5600C2F6126AD6126ABA755500854B45D24622E545B54803020EB3303804121AE72295
:200E7600F54890023CE0A2E0B39225756700756600740090000BF074FF90000AF0754FFF0F
:200E9600C253C254755503126ABA126AD61206E374011209681207997413120813900009CA
:200EB600E0C39402400890000AE04480F02290000AE030E71DC25AC27AC27B740090000AFA
:200ED600F07401900009F012075190001AE0900019F0305A19C25AC21090000BE0F54F3001
:200EF600220CC2A9C222C28C75B20075B10022E54630E715F549E54430E70D906172121B30
:200F1600955005754605D25A22E53660012275360AE57260021572E5462323900F35730276
:200F360010650002193E0002167D0002170D0002182300020F4D00E546B54903020F9AF5AB
:200F560049740F1208527402900009F0C25FC27AC27B1206EE7E267F01900224E0FB7A086D
:200F7600120F87900225E0FB900019E0C3940804FA1207B3EB13FB7465400274661207D197
:200F96000FDAEE22207A04207B0122C27BC27A90000BE02323900FAF73020FE300020FEDF9
:200FB60000020FF7000210010002100B000210150002101F00021029000210330002103DBC
:200FD60000021047000210510002105B00900224E0B2E0F0020F68900224E0B2E1F0020F17
:200FF60068900224E0B2E2F0020F68900224E0B2E3F0020F68900224E0B2E4F0020F689027
:201016000224E0B2E5F0020F68900224E0B2E6F0020F68900224E0B2E7F0020F68900225CE
:20103600E0B2E0F0020F68900225E0B2E1F0020F68900225E0B2E2F0020F68900225E0B24F
:20105600E3F0020F68900225E0B2E4F0020F68E546B54903021147F549900224E020E20834
:20107600740190023BF0A3F07402900009F074019000D2F0740090000BF090000CF09000B4
:20109600D2E0B40308740D120852021138B4010874031208520211387404120852741A1222
:2010B6000968740112096890001BE004041209687900900224E030E00674051207D109907A
:2010D6000224E030E70674061207D109900224E030E20774071207D10909900224E030E49A
:2010F6000674081207D109900225E030E20674091207D109900224E075F00A20E30A30E61E
:201116001775F00B0902112530E60475F00C09E5F01207D1E92406F990001BE029F090005E
:2011360019F07443120807C25FC25DC25C1215BC22305D10C25D9000D2E004B40402740124
:20115600F002108A305C0FC25C9000D2E01470027403F002108A303807121AE7303801225C
:201176009000D2E0B4010A90000CE09011A002119BB4030A90000CE090121802119B9000B8
:201196000CE09011DCC2202323730212240002122F0002123D000212480002125300021292
:2011B6005E00021269000212740002127F0002128A00021295000212A0000212AB00021255
:2011D600B6000212C1000212CC000212D7000212E2000212FD00021318000213390002130C
:2011F6005A0002136C0002137E000213A1000213A9000213AF000213B5000213BB00021384
:20121600C1000213DA000213E5000213F0009002287D0C7E481213FB229002297D0C7E7884
:201236001213FB121BC72290022A7D017E041213FB2290022B7D027E321213FB2290022C78
:201256007D027E321213FB2290022D7D007E321213FB2290022E7D007E641213FB229002E6
:201276002F7D0A7E781213FB229002307D007EC81213FB229002317D0A7E781213FB229091
:2012960002327D007EC81213FB229002337D0A7E781213FB229002347D007EC81213FB22B0
:2012B6009002357D0A7E781213FB229002367D007EC81213FB229002377D007E0A1213FBD7
:2012D600229002387D007E0A1213FB22900224E020E0099002397402F00213909002397D08
:2012F600017E021213FB22900224E020E70990023A7400F002139090023A7D007E6412134A
:20131600FB22900224E020E20F90000CE0204D041414F0220404F02290023B7D017E0212D5
:2013360013FB22900224E020E20F90000CE0204D041414F0220404F02290023C7D017E02B3
:201356001213FB22900224E030E42F90023D7D007E501213FB22900225E030E21D90023F69
:201376007D007E011213FB22900224E030E60B90023E7D007EC81213FB2290000CE0204DA4
:2013960007204C012214F02204F0229002407D010213C69002410213C49002420213C49051
:2013B60002430213C49002440213C49002457D007E04759201900224E0F517759200D220D1
:2013D6001213FB229002467D0A7E781213FB229002477D0A7E781213FB229002487D0A7EA7
:2013F600781213FB22204C03304D0FC24CC24DC21974031209681215BC22301952205F060B
:20141600900004021596C25FC219C082C083900005E07009900004E0B506004004EE02148F
:201436003DB505005001EDD083D082302016F8E51720E606B8020302145B20E306B8030361
:2014560002145BE8F01214A112064212068422307A11E0B5050302148A5004ED02148A1461
:2014760002148A307B49E0B5060302148A4004EE02148A04F0302013F8E51720E605B802A2
:201496000280CC20E305B8030280C4E0C0E01206EE741A120968740312096890000BE004CF
:2014B600120968D0E0121CF1121D64C27BC27A22204C03304D10C24CC24DC2197403120910
:2014D600681215BCC322301967205F08900004121596C322C25FC219C082C083900005E063
:2014F600B5070A900004E0B50603021521400B900004EEF0A3EFF0021521900005E0700B3F
:20151600900004E0B505005002EDF0900004E0D083D082F0A3C082C083900005E0D083D08F
:2015360082F01582121596120642C27AC27BD322307A25C27AA3E01582700EE0B5050AEED2
:20155600F0A3EFF01582021596E014F0B4FF31A3E014F01582021596207B02C322C27BA3CA
:20157600E01582B5070FE0B5060BEDF0A37400F01582021596E004F07006A3E004F01582ED
:20159600E0F516A3E0F5171206EE741A120968740312096890000BE004120968E517121C7E
:2015B600FD121D64D322C24CC24D1206EE90001BE004FB9000D2E0B401069002280215DC39
:2015D600B403159002467F017E031207B3121CD7121D64A30FDBF3227B029002371215DC01
:2015F600900224E030E00D1207B3900239121CD7121D640F900224E030E70D1207B39002CC
:201616003A121CD7121D640F900224E030E2087B0290023B1215E0900224E030E40D120702
:20163600B390023D121CD7121D640F900225E030E20D1207B390023F121CD7121D640F90E1
:201656000224E030E6101207B390023E121CD7121D640F021674900224E020E301227B063C
:201676009002401215E0221206EEE546B5490302169CF5497402900009F0740090000EF034
:2016960074FF90000FF0305D12C25D75363290000EE004B4041874000216C4305C11C25C3A
:2016B60075363290000EE01430E703740414F090000EE0FF90000FE0B507030216E07403E5
:2016D600120968EFF024141208527D08EF23239016E9730216F9000216FE000217030002ED
:2016F600170800AEF8021806AE90021806AEB0021806AE210218061206EEE546B5490302F0
:20171600172EF5497402900009F0740090000EF074FF90000FF0C25A305D12C25D75363276
:2017360090000EE004B404187400021756305C11C25C75363290000EE01430E7037404148E
:20175600F090000EE0FF90000FE0B5070302177EEFF02418120852E544600D752A0075738D
:20177600007427C25F1207D17D08EF2323901787730217B5000217AB000217A10002179756
:2017960000AE801217C18E80021806AEC81217C18EC8021806AEE81217C18EE8021806AE53
:2017B600FA1217C18E208EFA021806E544700122E52A6016757300740A2573F573E52AC360
:2017D60013F52A50F20573757201305F0CC25FE572600E757200757300E572B401118573BA
:2017F6007290000BE0FC0C7400D333DCFD6EFE22741A1209687402120968ED120968EE3362
:20181600FE743140027430120968DDE4221206EEE546B5490302183DF549740E120852749A
:2018360002900009F0C25F7E037F011207B3125A7A121CFD121D527E037F021207B3125A4D
:2018560083121CFD121D527E037F031207B3125A91121CFD121D527E027F041207B37F621B
:2018760078CEE6C39480500664FF24017F61121AAC7E237F041207B3900200203F03900243
:2018960002E0F516A3E0121CFD121D527E027F051207B378D1E67F5FC39480500664FF2485
:2018B600017F60121AAC303804121AE72290000BE023239018CD730218E1000218E1000218
:2018D60018E1000218E2000219320022E559B4140040F8205F32207A19207B0122C27B9061
:2018F6000202303F03900200E02404F0A3E03400F022C27A900202303F03900200E0C394FE
:2019160004F0A3E09400F022C25F122383900200203F03900202EEF0EFA3F022305FFCC264
:201936005F75C50075C60022120704E546B5490302196BF549C2407402900009F074009089
:20195600000EF074FF90000FF01207787405120968C25CC25D305D12C25D75363290000E6E
:20197600E004B420177400021992305C10C25C75363290000EE01430E702741FF030400B21
:20199600753632C24090000FE004F090000EE0FF90000FE0B5070122EFF0F5F07410A4FC1C
:2019B600ADF07B107F017E011207B38C020AEDBA0001048A16121CFD121D64900206E02CD8
:2019D600F8900207E03D5401246E759207F5838882E075920030E7087402120968021A743D
:2019F600F82447120807E870557E0C1207B375920705830583E0759200121A9C7E181207CE
:201A1600B375920705830583E0759200121A9C7E241207B375920705830583E075920012AB
:201A36001CF1121D6D742E12096875920705830583E0759200121CF1121D93021A74B40395
:201A56001D7E121207B375920705830583E0759200121A9C7E1C121A807E23121A800CBCCF
:201A760000010D0FDB01220219BC1207B3759207058305837862E075920030E7047861C2FD
:201A9600E7C8120807E87800C31350027805121CF1E8121DA222CF1207D1EF7F00C3135014
:201AB600027F05121CF1EF121DA222D23890000174FFF090018B7440F0900213E0700EA325
:201AD600E0700AA3E07006A3E07002C2381206422290018BE020E60D30E721305F1DC25F1E
:201AF600741E1207D190018B7403F090000174FFF0741C1207D1743C1207D122900001E036
:201B160030E70122FA74FFF090018BE0FB14F0049001872582F582EAF0743C1207D17404F7
:201B3600C39BF517742A120968D517F8EB600122900213E0FA900187E0B50235900214E0C9
:201B5600FA900188E0B50229900215E0FA900189E0B5021D900216E0FA90018AE0B5021108
:201B7600C23890018B7400F0120642741E1207D12274461207D1C25F90018B7480F0227581
:201B96009207900001E020E723FB74FFF0900227E0FA14F0759200EA93B5030ADA0E900246
:201BB600277405F0D3229002277405F0759200C322900229E0901BF09375F004A4F5E98543
:201BD600F0EA75ED0575EE00121DC99000D4E5E964FFF0A3E5EA64FFF022000000000000E7
:201BF6000000000000000000000000000000000000000000000000000000000001020303C6
:201C160004060708090B0C0E0F11131416181A1C1E20222426282A2C2E30323436383A3CEC
:201C36003E4042444647494B4C4E4F5052535455565657585858585858575756555452517F
:201C56004F4D4A4845423E3B37332F2A26211C18130E0A06030000000000000000000000CE
:201C7600000000000000AFABA8A5A29F9D9A9896949391908F8E8D8D8C8C8C8C8C8C8C8D21
:201C96008E8E8F9192939596989A9C9EA0A2A5A7A9ACAFB1B4B6B9BCBFC1C4C6C9CCCED0D7
:201CB600D3D5D7D9DBDDDEE0E1E2E3E4E5E6E6E6E6E6E6E5E5E4E3E2E1E0DFDEDCDBDAD912
:201CD600D8C0D0C2D3D2D4E0FE7400021D03C0D0C2D3D2D4E0FEA3E0021D03C0D0C2D3D292
:201CF600D4FE7400021D03C0D0C2D3D2D4FF7A007B007C007D00EF6020EEC39410F8EF946F
:201D1600274006AE10FF0A80EDEEC394E8F8EF94034006AE10FF0B80F0EEC39464F8EF94BF
:201D3600004006AE10FF0C80E0EEC3940AF8EF94004006AE10FF0D80D0D0D022E5127028A3
:201D56007420120968E51370267420120968E51470247420120968E515702274201209686A
:201D7600E516443012096822E5124430120968E5134430120968E5144430120968E515442E
:201D960030120968E516443012096822F517E5154430120968742E120968121D9AE517443B
:201DB6003012096822E5EAC313F5EAE5E913F5E9E5EA227400B5ED0AB5EE0775E9FF75EA7E
:201DD600FF22C0F0C082C08375820075830075F010C3E5E933F5E9E5EA33F5EAE58233F521
:201DF60082E58333F583400AB5EE05E582B5ED00400FC3E58295EDF582E58395EEF5830563
:201E1600E9D5F0CD8582ED8583EED083D082D0F0227400B5ED10B5EE0D75E9FF75EAFF75BA
:201E3600EBFF75ECFF22C0F0C082C08375820075830075F020C3E5E933F5E9E5EA33F5EAF4
:201E5600E5EB33F5EBE5EC33F5ECE58233F582E58333F583400AB5EE05E582B5ED00400F36
:201E7600C3E58295EDF582E58395EEF58305E9D5F0C38582ED8583EED083D082D0F022C01F
:201E9600F0C082E5E985EDF0A4C0E0C0F0E5E985EEF0A4D0E925E9F5E9E435F0F582E5ED0A
:201EB60085EAF0A425E9F5E9E58235F0F582E43400C0E0E5EE85EAF0A42582F5EBD0E03520
:201ED600F0F5EC85E9EAD0E9D082D0F022E54CB54D00402BD2D31270D8C2D3400122E54C10
:201EF600B54E0122F54D5005054C055922154C741C1207C1741D1207C1741E1207C122D2A8
:201F1600D3127E01C2D3400122E54CB54E0122F54D5012054C741C1207C1741D1207C174BA
:201F36001E1207C122154C055C22900009E0B40200400122E54F20E7FA2323901F55730207
:201F56001F7100021FA100021FE00002200A0002204300022074000220CE00204703D2467F
:201F7600221221A82010231221D17E027F021207B374201209687E027F011207B3206A3B82
:201F9600742A120968E567126A4022204703D246221221A82010F31221D17E027F01120721
:201FB600B374201209687E027F021207B3206B0B742A120968E567126A7A22742012096842
:201FD600126ABA7F0578670220C11221A82010231221D17E027F041207B374201209687ED9
:201FF600027F031207B3206235742A120968E566126A5D221221A82010F91221D17E027F56
:20201600031207B374201209687E027F041207B320630B742A120968E566126A9A2274202F
:20203600120968126AD67F0678660220C11221A820100F1221D17E027F051207B3742A12D1
:2020560009687867E567306A0DF5B11220A290021CE5A1022207306B33F5B20220A21221E2
:20207600A820100F1221D17E027F061207B3742A1209687866E56630620DF5B31220A29099
:20209600021DE5A3022207306302F5B4307B0BC27BE62405501174FF800D307A1AC27AE6D1
:2020B600C3940550027400F6AF4F0F7E041207B3E6121CF1121D6422E537706F75370A121A
:2020D60006E3741A1209687401120968740A1209689000C2121CE4121D527420120968906B
:2020F60000C0121CE4121D527420120968125A9F121CFD121D5274201209689000BFE01251
:202116001CF1121D5274201209689000C8121CE4121D527420120968E5CA85C91630250595
:202136006316FF64FF121CFD121D5220100F1222327E027F071207B3742A120968304551A4
:20215600305814C258755000C2BEC222C2F675B20075B10012285DE5506003B404339000DB
:20217600C212224D307A14C27A9000C2E07008A3E070041224C1221224E722307B13C27B18
:202196009000C2E07008A3E070041224D42212251422E537702475370A1206E37E267F0566
:2021B6001207B3E55E121CF1121D647E267F061207B3E55F121CF1121D6422D2101206E35E
:2021D6007E027F051207B374201209687E027F061207B374201209687E027F071207B374D4
:2021F600201209687E027F081207B3742012096822B66427B40A00401A305417C25475F0AB
:2022160064A4F5E985F0EA86ED75EE00121DC9E5E9F022305305C2537464F022D210D24436
:202236007F087E021207B37420120968DFF474561207C1752A0122740075F0002057107491
:20225600D075F007205608E52A602275F00AA4F0E5F0A3F07E157F0C1207B37F00E52AC377
:202276000F1350FCEF4430120968752A0022122383900200203F03900202E0FCA3E0FDEEA9
:20229600C39CFEF5E9EF9DFFF5EA303F1290022EE075F008A425E9F5E9E5F035EAF5EA2072
:2022B600E718121DBB121DBB7005E5E930E702747F647F0478CEF60222ED63E9FF63EAFF1B
:2022D600121DBB121DBB7007E5E9B47F004002747E44800478CEF6125A918516E9F5EA20E4
:2022F600E715121DBB7005E5E930E702747F647F0478D1F602232763E9FF63EAFF121DBBA0
:202316007007E5E9B47F004002747E44800478D1F630621190021DE0F5F090001F122358A1
:20233600C3956450027400F55F306A1190021CE0F5F0900023122358C3956550027400F5DB
:202356005E2275E90075EA007F04E025E9F5E9E5EA3400F5EAA3DFF275ED1975EE00121E77
:202376009585F0ED75EE00121DC9E5E922125A83FFAE16125A7AC516C39EFEE5169FFF900A
:2023960000D4E02EFEF576A3E03FFFF577E5742EFEE5753FFF22E53EB40105B2CD753E64FD
:2023B6007F0030B10CE5557002C3220F30B302C322C2CF900225E030E20312243174282FC2
:2023D600900101F0753EFFD322E5447005753EFFC2CD22E5F023239023F173022411000252
:2023F6002431000224C1000224D400022552000224E7000225140002241100C2BEC22253E2
:20241600AEBF75500074009000C6F075B20075B10012285D9000C77400F022C2BED22290F5
:2024360000C77402F09000BFE0601075F003126523500375F014B5F000502875500475B2DF
:202456000075B10012285D125A9F9000C1F0E5169000C0F074009000C4F0A3F09000C6F091
:20247600D2BE2274FF75F0FF84F5F0E0A4FAABF0125A9FC5162023192A9000C0F0E5163B59
:20249600A3F075500275F0FF122825122843D2BE22C39A9000C0F0E5169BA3F075500375D7
:2024B600F0FF122834122850D2BE22C2BED22275500075F0FF1228251228430225F4C2BE59
:2024D600D22275500075F0FF1228341228500225F4C2BED2229000C77402F09000C2E0F55E
:2024F60014A3E0F515122540C516C395149000C0F0E5169515A3F0E515D220022588C2BED4
:20251600D2229000C77402F09000C2E0F514A3E0F515122540C51625149000C0F0E5163531
:2025360015A3F0E515C220022588E550B404099000C0E0F516A3E022125A9F22C2BED222DB
:202556009000C77402F09000C2E0F514A3E0F515125A9FF517E5149000C0F0C39516F51419
:20257600E515A3F09517C22030E707D2206314FF64FFB40005E514B4320050249000BFE006
:20259600B40500501B75500475B20075B10012285D74009000C4F0A3F09000C6F00225F4A8
:2025B60030200F75F0FF1228251228437550050225D475F0FF122834122850755006E5CACB
:2025D60085C916B5CAF83025056316FF64FF9000BEF0E5169000BDF074009000BFF053AEAB
:2025F600BF75AB1875ADFC43AE40C2C7D2BE22E550232390260D730226290002262A0002EE
:2026160026AA000226DF000227140002281100022815002274FF75F0FF8423F5F0EC601A2B
:20263600A4FAABF02023219000C0E0C39AFAA3E09BFBC3EA9EEB9F20E7012275500275F01C
:20265600FF12282512285D2212652340139000C0E02AFAA3E03BFBC3EA9EEB9F30E728221D
:2026760090024DEAF0A3EBF09000C0E0FAA3E0FBEEC39A9000C8F0EF9BA3F070079000C8E6
:20269600E0B42D0040012275500375F0FF12283412285D22202312EC75F003126523500317
:2026B60075F00AB5F00040012275500475B20075B10012285D9000C0E0FAA3E0FBEEC39AED
:2026D6009000C8F0EF9BA3F022302312EC75F003126523500375F00AB5F00040012275507B
:2026F6000475B20075B10012285D9000C0E0C39E9000C8F09000C1E09F9000C9F022E5CA19
:20271600ACC9B5CAF9FD302506631CFF631DFF9000C0E0C39EFEA3E09FFFC22330E708634A
:202736001EFF631FFFD223EEC3C0E01265234007D0E09402022751D0E09405EF9400501AC8
:2027560075B20075B10012285D74009000C6F09000C7E0600214F002280820234C9000C512
:20277600E0B51D0A9000C4E0B51C03022793500D9000C6E0B414004016140227A59000C6DA
:20279600E0700574140227A5B4FF030227A504F0F5F012283453203F30CF08C39414400346
:2027B6001228508520FA0228089000C5E0B51D0A9000C4E0B51C030227DF400D9000C6E004
:2027D600B414004016140227F19000C6E0700574140227F1B4FF030227F104F0F5F0122867
:2027F6002553203F30CF08C3941440031228438520FA9000C4ECF0EDA3F0222023052230AF
:20281600230122BC050050012275500102262A126523401820250F75B10085F0B2221265E4
:202836002340092025F175B20085F0B12220250D5320BF4320808520FA222025F353207F1F
:202856004320408520FA2253203F8520FA220E021A010103060101852020206175746FFEB8
:202876008520202074657374FE000E021A0101030601018520202072657475726E20746FE0
:20289600206D61696E206D656E75FE852020206175746F6D61746963FEFF85202020747216
:2028B6007565696E6720706172616D6574657273FE8520202070726F64756374696F6E204C
:2028D6006F76657276696577FE85202020696E70757473FE852020206F757470757473FEE0
:2028F600852020206D6561737572696E6720696E737472756D656E7473FE000E021A0101FC
:20291600030601018520202072657475726E20746F206D61696E206D656E75FE8520202091
:2029360074657374206D616368696E652073657175656E6365FE8520202074657374206E22
:202956006970706C652D6D6F746F7273FEFF8520202074727565696E6720706172616D6500
:2029760074657273FE8520202070726F64756374696F6E206F76657276696577FE852020FF
:2029960020696E70757473FE852020206F757470757473FE852020206D6561737572696E10
:2029B6006720696E737472756D656E7473FE000E021A010106010185202020202020737054
:2029D6006F6B6573FE852020202020206D6D2072696D7769647468FE8520202020202072D5
:2029F600696D20747970653A20313D46312C20323D46322C20332F343D52616469616CFE2D
:202A1600852020202020202A302E31206D6D207369646520646576696174696F6E20746FFD
:202A36006C6572616E6365FE852020202020202A302E31206D6D206865696768742064652E
:202A560076696174696F6E20746F6C6572616E2EFE852020202020202A302E31206D6D200D
:202A76006F7574206F662063656E74657220746F6C6572616E6365FE852020202020202A08
:202A9600302E31206D6D207265617220776865656C73206F7574206F662063656E74657217
:202AB600FE852020202020206E636D206D696E2E20746F727175652066726F6E74207768E5
:202AD60065656C73206C656674FE852020202020206E636D206D61782E20746F7271756597
:202AF6002066726F6E7420776865656C73206C656674FE852020202020206E636D206D698D
:202B16006E2E20746F727175652066726F6E7420776865656C73207269676874FE85202051
:202B3600202020206E636D206D61782E20746F727175652066726F6E7420776865656C737C
:202B5600207269676874FE852020202020206E636D206D696E2E20746F7271756520726557
:202B7600617220776865656C73206C656674FE852020202020206E636D206D61782E207450
:202B96006F72717565207265617220776865656C73206C656674FE852020202020206E63A2
:202BB6006D206D696E2E20746F72717565207265617220776865656C73207269676874FE92
:202BD600852020202020206E636D206D61782E20746F727175652072656172207768656575
:202BF6006C73207269676874FE000E021A01010601018520202020202074727565696E672D
:202C160020726F756E647320776974682068656967687420636F72722EFE85202020202047
:202C36002074727565696E6720726F756E647320776974686F757420686569676874FE00DA
:202C5600852020202020206E6970706C6568616E6473202831206F72203229FE00852020CB
:202C7600202020202A302E3031207365632E20616674657220636C616D70696E67207370AC
:202C96006F6B65FE0085202020202020776865656C206C6F6164696E672E20313D6E6F727E
:202CB6006D616C2C20323D652D687562FE85202020202020776865656C207475726E732E56
:202CD60020313D6E6F726D616C2C20323D6261636B7761726473FE00852020202020206DAA
:202CF6006D2E20617869616C2073706F6B652064697374616E6365FE008520202020202004
:202D1600776865656C2073706565642E20303D736C6F772C20313D66617374FE00852020AC
:202D3600202020207373702070686173652031FE852020202020207373702070686173655B
:202D560020322020207373702D636F6D6D616E64733AFE852020202020207373702070680B
:202D7600617365203320202020313D7469676874656E696E67FE85202020202020737370F9
:202D9600207068617365203420202020333D73746162696C697A696E67FE852020202020E5
:202DB60020737370207068617365203520202020343D74727565696E67FE852020202020EF
:202DD60020737370207068617365203620202020303D656E64FE00852020202020207363A3
:202DF600616C65206C6F772074656E73696F6E2074727565696E67FE852020202020207325
:202E160073702070686173652031FE852020202020207373702070686173652032202020BB
:202E36007373702D636F6D6D616E64733AFE85202020202020737370207068617365203350
:202E560020202020313D7469676874656E696E67FE852020202020207373702070686173D8
:202E760065203420202020323D6C6F772074656E732E2074727565696E67FE852020202019
:202E96002020737370207068617365203520202020343D74727565696E67FE85202020200E
:202EB6002020737370207068617365203620202020303D656E64FE00852020202020207305
:202ED60063616C65206C6F772074656E73696F6E2074727565696E67FE8520202020202054
:202EF60073737020706861736520312020207373702D636F6D6D616E64733AFE8520202092
:202F1600202020737370207068617365203220202020313D7469676874656E696E67FE85C0
:202F3600202020202020737370207068617365203320202020323D6C6F772074656E732E98
:202F56002074727565696E67FE85202020202020737370207068617365203420202020336C
:202F76003D73746162696C697A696E67FE852020202020207373702070686173652035201F
:202F9600202020343D74727565696E67FE852020202020207373702070686173652036200C
:202FB600202020303D656E64FE000E021A0101060101852020202020202A302E31206D6DCD
:202FD600207369646520646576696174696F6E20666F722072656A656374FE85202020202C
:202FF60020202A302E31206D6D20686569676874206465762E20666F722072656A6563749E
:20301600FE852020202020202A302E31206D6D206F7574206F662063656E74657220666FA1
:20303600722072656A656374FE000E021A0101060101852020202020202020656E636F64AB
:203056006572207369646520646576696174696F6E206C656674FE8520202020202020208D
:20307600656E636F646572207369646520646576696174696F6E207269676874FE852020B1
:20309600202020202020656E636F6465722068656967687420646576696174696F6EFE857B
:2030B60020202020202020206D6D207369646520646576696174696F6E20206F6666736525
:2030D600743DFE8520202020202020206D6D20686569676874206465766961746F6EFE00BB
:2030F6000E021A010106010120204F5054494F4E20312048414E442054525545494E472083
:2031160020202020202020202020203AFE20204F5054494F4E2041584C45205455524E2015
:20313600202020202020202020202020202020203AFE20204F5054494F4E20452D485542B7
:203156002020202020202020202020202020202020202020203AFE20204F5054494F4E2048
:2031760053544142494C495A494E4720554E4954202020202020202020203AFE20204F5042
:2031960054494F4E204641542052494D202020202020202020202020202020202020203A42
:2031B600FE20204F5054494F4E205053542028322073706F6B652073656E736F7273292099
:2031D600202020203AFE20204F5054494F4E204C4F572054454E53494F4E2054525545490D
:2031F6004E47202020202020203AFE20204F5054494F4E2053504F4B4520434C414D505371
:2032160020202020202020202020202020203AFE20204F5054494F4E204452592052554E63
:20323600202020202020202020202020202020202020203AFE20204F5054494F4E20574808
:2032560045454C20504F534954494F4E4552202020202020202020203AFE20204F50544962
:203276004F4E2053544550504552204D4F544F52204452495645202020202020203AFE20D5
:20329600204F5054494F4E204341524F5553454C20202020202020202020202020202020A1
:2032B60020203AFE20204F5054494F4E20524F544154494E47204E4950504C4520434C4107
:2032D6004D5053202020203AFE000E011A01018520202020202020202020746F72717565A0
:2032F6003A2020202020202020202FFE85202020202020202020202020202020202020204C
:20331600766572742E20202F20686F722EFE85202020202020202020206265666F72653A32
:203336002020202020202020202FFE85202020202020202020202061667465723A20202099
:203356002020202020202FFE8520FE852020202020202020202073696465206465762E20B0
:203376006C65667420203AFE852020202020202020202073696465206465762E20726967BB
:203396006874203AFE852020202020202020202068656967687420646576696174696F6EC2
:2033B6003AFE8520202020202020202020202020202020202074696D65202020203AFE850E
:2033D60020FE8520FE1A01108566383D7377697463682070616765FE000E031A010185206C
:2033F600202020202020202020746F74616C20636F756E7465722020203AFE8520202020B6
:20341600202020202020617070726F76656420202866362920203AFE85202020202020206B
:2034360020202072656A656374656420202866372920203AFE852020202020202020202065
:20345600202020202020202074696D65202020203AFE8520202020202020202020617665EE
:20347600726167652074696D65202020203AFE8520FE8520FE8520FE8520FE8520FE1A01C6
:20349600108566383D73776974636820706167652E20663620616E642066372B656E746586
:2034B600723D7265736574FE008520202020206D616368696E6520696E20737461727420C7
:2034D600706F736974696F6EFE85202020202068756220636C616D7073206F7574736964A7
:2034F60065FE8520202020206F70656E2061786C6520636C616D7073FE8520202020206F80
:2035160070656E2072696D20647269766572732F686569676874206D6561732E20756E69C3
:2035360074FE85202020202073746F70207475726E20776865656CFE852020202020696E00
:2035560064657820776865656C203C73746172743EFE8520202020206E6970706C652068E4
:20357600616E6473206F757473696465FE8520202020206E6970706C65206B657973206962
:203596006E203020706F736974696F6EFE8520202020206E6970706C65206B657973206FAC
:2035B6006666206E6970706C6573FE8520202020206D616368696E6520696E207374617245
:2035D6007420706F736974696F6EFE8520202020206F70656E206C6F636B20696E707574DE
:2035F600207261696CFE85202020202068756220636C616D707320696E73696465FE8520AC
:2036160020202020636C6F73652061786C6520636C616D7073FE852020202020636C6F73C0
:20363600652072696D20647269766572732F686569676874206D6561732E756E6974FE85A9
:2036560020202020207475726E20776865656CFE85202020202073746F70207475726E20C4
:20367600776865656C20FE8520202020206E6970706C656B65797320696E203020706F73DF
:203696006974696F6E20FE8520202020206E6970706C6568616E6473206F6E2073706F6B3E
:2036B6006573FE8520202020206E6970706C65206B657973206F6E206E6970706C6573FE7F
:2036D6000010010E011A010103060101852020207475726E206C656674206E6970706C656C
:2036F6006B65792028736372657729FE852020207475726E206C656674206E6970706C65B7
:203716006B65792028756E736372657729FE852020207475726E207269676874206E697081
:20373600706C656B65792028736372657729FE852020207475726E207269676874206E6973
:2037560070706C656B65792028756E736372657729FE85202020202030206E636D20746F2D
:2037760072717565206C65667420203C2D3E20616E64203C2B3EFE85202020202030206ECB
:20379600636D20746F72717565207269676874203C2D3E20616E64203C2B3EFE8520202083
:2037B60074657374206D6F746F7220776865656C207475726E20FE000E021A010106010172
:2037D6008520202038783131207269676874206E6970706C652068616E64206973206F6E42
:2037F6002073706F6B65FE8520202037783131206C656674206E6970706C652068616E644F
:20381600206973206F6E2073706F6B65FE8520202036783131207269676874206E6970704F
:203836006C65206B6579206973206F6E206E6970706C65FE8520202035783131206C65664E
:2038560074206E6970706C65206B6579206973206F6E206E6970706C65FE8520202034789D
:20387600313120776865656C20697320696E20696E707574207261696CFE85202020337802
:20389600313120776865656C206973206265747765656E2068756220636C616D7073FE85F3
:2038B600202020327831312061786C65206973206E6F7420696E20636C616D7020726967C9
:2038D6006874FE85202020317831312061786C65206973206E6F7420696E20636C616D70AD
:2038F600206C656674FE000E021A0101060101852020203878332073706F6B652073656E45
:20391600736F722031FE8520202037783320776865656C20697320696E206F75747075742E
:20393600207261696CFE85202020367833206C656674206E6970706C65206B657920696E12
:20395600203020706F736974696F6EFE85202020357833207269676874206E6970706C65C3
:20397600206B657920696E203020706F736974696F6EFE852020203478332073706F6B65E8
:203996002073656E736F722032FE85202020337833202DFE85202020327833202DFE852047
:2039B6002020317833202DFE000E021A01010601018520202038783420776865656C2069CF
:2039D6007320696E20696E707574207261696C20286E6577207479706529FE852020203798
:2039F600783420656D657267656E637920737769746368FE852020203678342073746172D5
:203A16007420737769746368FE852020203578342061697270726573737572652073656E6B
:203A3600736F72FE85202020347834207269676874206E6970706C6568616E6420697320BC
:203A56006F757473696465FE85202020337834206C656674206E6970706C6568616E642063
:203A76006973206F757473696465FE85202020327834206361726F7573656C20726F6C6C1F
:203A96006F7574286F7074696F6E29FE8520202031783420776865656C20697320696E20C6
:203AB600696E707574206C69667420286F7074696F6E29FE000E021A0101060101852020F0
:203AD600203878313220FE8520202037783132206C6F61642073657175656E636520666F5A
:203AF6007220652D68756220286F7074696F6E29FE85202020367831322073746162696CB0
:203B1600697A696E6720286F7074696F6E29FE8520202035783132202DFE85202020347895
:203B36003132202DFE8520202033783132202DFE8520202032783132202DFE852020203130
:203B5600783132202DFE000E021A01010601018520202038783130202DFE85202020377820
:203B76003130202DFE8520202036783130202DFE852020203578313020686967682073708E
:203B96006565642073656C6563746F72FE8520202034783130206E6970706C652068616E71
:203BB600647320696E73696465FE8520202033783130206272616B65206C6576657220709A
:203BD6006F736974696F6E6572FE8520202032783130207374657070657220435720286F71
:203BF6007074696F6E29FE852020203178313020737465707065722043435720286F7074B4
:203C1600696F6E29FE000E021A01010601018520202038783920696E707574206C6F636B06
:203C36002F776865656C73746F702F7261696CFE852020203778392068756220636C616DA6
:203C56007073FE852020203678392061786C6520636C616D7073FE852020203578392072DC
:203C7600696D20647269766572732F686569676874206D65617375726520756E6974FE851C
:203C960020202034783920776865656C20737769746368FE85202020337839206C65667450
:203CB600206E6970706C652068616E64206F6E2073706F6B65FE852020203278392072698B
:203CD600676874206E6970706C652068616E64206F6E2073706F6B65FE8520202031783924
:203CF600206E6970706C65206B657973206F6E206E6970706C65FE000E021A010106010153
:203D160085202020387832206D6F746F722073656C6563742072696D2F6E6970706C65FEB8
:203D36008520202037783220656E61626C6520647269766572206C656674206E6970706C66
:203D560065206B6579FE8520202036783220656E61626C65206472697665722072696768BF
:203D760074206E6970706C65206B6579FE852020203578322073706F6B6520636C616D7077
:203D960073FE8520202034783220696E707574207261696C20667265652028746F207374CD
:203DB6006162696C697A657229FE85202020337832207761726E696E67206C69676874FE66
:203DD60085202020327832207475726E206178656CFE8520202031783220736C6F77207323
:203DF600746172742076616C7665FE000E021A01010601018520202038783120696E7075E0
:203E1600747261696C207365636F6E64207374657020286F7074696F6E29FE8520202037D4
:203E36007831206361626C6520686F6F6B20656C656374726F2068756220286F7074696FFB
:203E56006E29FE852020203678312068756220636C616D7020626C6F636B20656C65632E55
:203E76002068756220286F707429FE8520202035783120696E7075747261696C20666972EF
:203E96007374207374657020286F7074696F6E29FE8520202034783120696E707574206CA3
:203EB60069667420286F7074696F6E29FE8520202033783120696E707574206C6F636BFEC9
:203ED600852020203278312061786C6520636C616D70206C6F636BFE85202020317831206F
:203EF60073746162696C697A696E672061726D73FE001A010C8520FE8520FE001A010E8520
:203F160020FE8520FE001A01108520FE001A010E8573746F702061667465722066696E6990
:203F36007368696E6720776865656CFE8520FE001A010E8573746F70206166746572206650
:203F5600696E697368696E6720776865656CFE853C73746172743E3D20636F6E74696E7535
:203F7600652C203C73746F703E3D2072656A656374FE001A010C8520FE001A010C8520FECE
:203F9600001A010C8520FE001A010E857072657373203C73746172743E20746F20636F6E3B
:203FB60074696E7565FE001A010E85707265737320677265656E2073746172742062757403
:203FD600746F6E202E2E2EFE001A010C8520FE001A010C856368616E6765207769746820FA
:203FF6003C656E7465723EFE857465737420776974683A3C66313E3D3120736563202E2E64
:204016002E2E2E203C66383E3D3820736563FE8573746F702077697468203C656E74657259
:204036003EFE001A010C85656D657267656E637920737769746368207072657373656420DB
:20405600FE001A010C85616972707265737375726520746F6F206C6F77FE001A010C8574E9
:204076006865726D69632072656C616973203120286D6F746F72206C65667429FE001A013B
:204096000C85746865726D69632072656C616973203220286D6F746F7220726967687429BB
:2040B600FE001A010D8574696D6572207A65726F20706F736974696F6E20FE001A010C85DF
:2040D6004D656D6F7279206572726F7220FE001A010C8520FE001A010E8520FE001A010137
:2040F600852066726F6E7486001A01018520726561722086000E031A0B068566313D7475C7
:20411600726E20776865656CFE1A0B098566343D6E6970706C6568616E6473206F6E2F6FBB
:2041360066662073706F6B6573FE1A0B0A8566353D6E6970706C656B657973206F6E2F6F7F
:204156006666206E6970706C6573FE000E031A0B078566323D756E626C6F636B206E697078
:20417600706C652068616E6473FE000E031A0B068566313D73746F70207475726E20776879
:2041960065656C20FE1A0B098520FE1A0B0A8520FE000E031A0B078566323D626C6F636B70
:2041B600206E6970706C652068616E6473FE000E031A0B088566333D77697468207469675C
:2041D6006874656E696E67FE000E031A0B088566333D776974686F7574207469676874658C
:2041F6006E696E67FE001A01018520FE001A010D853C2D3E206F72203C2B3E20636F727250
:204216006563742073706F6B6520706F736974696F6EFE853C454E5445523E20616674653A
:204236007220636F7272656374696F6EFE853C53544152543E20746F206E6578742073702E
:204256006F6B6573FE853C46373E206E6970706C652068616E647320696E2F6F75747369EC
:204276006465FE001A010E8520FE001A010C85796F757220636F64653A2086001A011085CF
:20429600796F757220636F64653A2086001A010C8520FE001A010C85776865656C2068612A
:2042B6007320746F20726F6C6C206F7574FE001A010C856E6F20776865656C20696E2069E5
:2042D6006E707574207261696CFE001A010C85776865656C20646F6573206E6F7420726F3D
:2042F6006C6C20696EFE001A010C85776865656C206E6F7420636F7272656374206265743C
:204316007765656E2068756220636C616D7073FE001A010C85703232612C703232622C70FC
:204336003232632C703232642C703233612C703431202C703432202C703433202C70343470
:20435600FE001A0110853C504147452D55503E203C504147452D444F574E3E20737769742D
:20437600636820706167657320FE000E031A0B098520FE000E031A0B098520FE001A01101F
:204396008577726F6E6720636F64652C7072657373203C656E7465723EFE008520686569B0
:2043B6006768743A20202020202020736964653A2020202020202074696D653AFE0085203F
:2043D60072656A6563743A612073706F6B65206973206D697373696E67FE00852072656A73
:2043F6006563743A73746F70206B6579207761732070726573736564FE00852072656A6538
:2044160063743A686967683A202020202020736964653A2020202020202FFE008520726593
:204436006A6563743A6E6F206D696E696D756D20746F72717565FE00852072656A656374AD
:204456003A746F7271756520746F6F2068696768FE00852072656A6563743A776865656CCB
:204476006469616D65746572206E6F7420636F7272656374FE00852072656A6563743A619D
:20449600786C65206E6F7420636F727265637420696E20636C616D7073FE00852072656ABF
:2044B6006563743A776865656C20646964206E6F74207475726EFE00852072656A65637490
:2044D6003A746F6F206D756368207369646520646576696174696F6EFE00852072656A657C
:2044F60063743A746F6F206D7563682068656967687420646576696174696F6EFE00852057
:2045160072656A6563743A746F6F20666172206F7574206F662063656E746572FE00852072
:2045360072656A6563743A77726F6E672073737020636F6D6D616E64FE001A0110853C66BC
:20455600373E20687562636C616D707320696E2F6F757473696465FE001A0110853C663747
:204576003E2072696D6472697665727320696E2F6F757473696465FE001A010C8520202053
:2045960020202020202020202020203E3E3E3E206631203C3C3C3C20FE8520202020202083
:2045B600207475726E206D6F746F722077697468203C2D3E20616E64203C2B3EFE853C66CB
:2045D600313E20697320736D616C6C6573742C203C66383E20697320626967676573742050
:2045F60073746570FE853C73746F703E2073746F70207475726E696E67FE00051A0109856D
:20461600776865656C2074727565696E6720726F626F742076657273696F6EFE001A010CC0
:2046360085636865636B696E6720746865206E6970706C656B657973FE001A010F8573704E
:204656006F6B6573656E736F727320696E20663120706F736974696F6EFE001A010F857395
:20467600706F6B6573656E736F727320696E20663220706F736974696F6EFE001A010D8579
:20469600636C6561722064617461626173653F2028792F6E292086001A010D8564617461F5
:2046B6006261736520636C6561726564FE001A010D856D616368696E65206E756D62657230
:2046D600FE001A010C8568756277696474682028636F7272656374696F6E2077697468203F
:2046F6002D2F2B2920860085482086008544208600854C2086008552208600855386008595
:20471600418600594553004E4F200028642880291129C52C002C562C732C9B2CEE2D0F2D1B
:20473600332DED2ECE2FC0304030F632E033EF34BF36D737CE38FD39BF3ACB3B5D3C1C3DFD
:204756000E3E023F083F123F1C3F233F463F893F903F973F9E3FBD3FDF3FE6403940584041
:2047760071409440B840D240E540EC40F340FF410B4162418141A841C541DF41FC4203428D
:204796007A4281429242A342AA42C542E142FD432743584381438A439343B143D443F144C9
:2047B600104432444E4468448C44B144CE44F0451445344550456F458F4611463346504679
:2047D60071469246AE46C446D846FD47024707470C471147154719471DD240C221124AF276
:2047F600900206E014F0F8900207E0B8FF03B2E0F054012462F5A0FF05A005A0900228E027
:20481600A23F92E7E560C3132560B5610092E605A005A0F279D2E7770005A005A0F279D38D
:20483600E7770005A005A0F279D4E7770005A005A0F2900007E0C2E705A005A0F2232390AF
:2048560048597302489D0002498D0002498D000249580002498D0002498D0002498D00026A
:20487600498D0002498D0002498D0002498D0002498D0002498D0002498D0002498D000262
:20489600498D0002498D00203A18900009E0702174061209687405120968740612096802E0
:2048B60048C774801209687403120968742912096890018EE004B49902748FF0F58275838E
:2048D60001E541F0E582240AF582E543F0790A7A007B0090018FE02AFA74003BFBA3D9F6CF
:2048F600790AE075F03CA42AFAE5F03BFBA3D9F28AE98BEA75ED0A75EE00121DC975ED3C10
:2049160075EE00121DC9AAE9ABEAE5ED90018CF0A3EAF01249A0125C4379BCE779BDC3974A
:2049360005A005A0F279BEE779BFC39705A005A0F2E54305A005A0F2E54105A005A0F20271
:204956004996125C4379BCE779BDC39705A005A0F2748079BFC397500564FF048002D2E74C
:2049760005A005A0F279BEE7C39480500564FF04D2E705A005A0F29000077480F01249B0B9
:204996007541007543007542002290020FE004F07006900210E004F0800E900211E004F054
:2049B6007006900212E004F09002087F07E004F0B40A067400F0A3DFF41206F9741A1209A7
:2049D60068741C120968740112096890020EE0243012096890020DE0243012096890020C03
:2049F600E0243012096890020BE0243012096890020AE02430120968900209E02430120959
:204A160068900208E02430120968741A120968741E120968740212096890020FE0F516A379
:204A3600E0121CFD121D7E741A120968741E1209687403120968900211E0F516A3E0121C49
:204A5600FD121D7E741A120968741D120968740512096890018DE0121CF1121D64742E1211
:204A7600096890018CE0121CF1121D9322439A01539BF0D273904AEA124ADD90021B7E0581
:204A9600E0124AD41582DEF87E2090022BE0124AD4A3DEF980020F0F8FA0E2124AD4BF7688
:204AB6000040F39002087F0BE0124AD4A3DFF9904AEE124ADD3073FDC273539AFE222230C9
:204AD60073FCC273F59C227E00EE93700122124AD40E80F52A64630064632A007480120933
:204AF60068742812096879D2E712096879D3E712096879D4E7120968E54375F03CA48541C4
:204B1600F025F0120968900007E0547F120968600DB40303024B34B40E03024B3422125CAC
:204B36004379BCE779BDC39712096879BFE712096879BEE712096879C1E71209689000076F
:204B5600E0547F70D879D6E71209682230450F307417304309C243122431C2A8C2BB9000CB
:204B7600C7E07003122411C32220433DC2EF20FBED20FAEAC2EDC2EE30B5E330B4E078F227
:204B9600861608861778D7A61608A6171256AFD24378F276000876001224C1753864755196
:204BB60000C289C2C3D2A8D2BBE5387010E544700C9000077401F0C218C2A8C2BBE55123B0
:204BD60023904BDB73024BEF00024BF600024C35000250B9000250E5000551756D03C2141E
:204BF600E538B40113753864E544700C9000077408F0C218C2A8C2BB201402C322C21475DA
:204C16003864D56DF37538FF75510278DD76FF740090013FF090010DF0D21878B7760120FD
:204C36001402C322C21475F078125544301802C322055178B976FF78BA76FF900224E0306D
:204C5600E51530E41790022AE0B40300500990023DE0B40A004005D272024F0EC27275105F
:204C76000075920190010F75920090013FE0B404004095C394084007F5030503024D0075C8
:204C96009201E0F516A3E0F517A375920090013FE0F5119001417CFF7DFFE0C39516FAF58B
:204CB60012A3E09517FBF51330E706630BFF630AFFEBB50D04EAB50C005010AC0AAD0BE595
:204CD600122464F514E5133400F515A3D511CB90017BE510232582F582E514F0A3E515F0D9
:204CF6000510E510B40698024DA3900141124D3C124D88D50303024DA3900143124D24D503
:204D16000303024DA3900145124D24024DA3850604850705124D3CE506C39504E5079505B2
:204D36005003124D882275920190010F75920290012B7806750600750700759201E0F5162C
:204D5600A3E0F517A3759200E0C39516FAA3E09517FBA3759202EA2464FAF0A3EB3400FBCD
:204D7600F0A3EA2506F506EB3507F507D8CC7592002275920190017B75920090012B7F0C28
:204D9600E0A3759201F0A3759200DFF4227C0675E90075EA0090017BE025E9F5E9A3E03514
:204DB600EAF5EAA3DCF275ED0675EE00121DC985E97F7B0178BB90017B7F0675F04CE0FC26
:204DD600A3E07009ECB57F00500375F052A6F008A3DFE87D007E007F0678BBE6F50190511F
:204DF60001EE93B50103024E3D0D75F00E900224E020E00375F002E5F0B50D23EB30E70C8D
:204E1600C2E7FB257FF57F7401024E2BE57FC39BF57FEB74812BFBC2E7B40998024C1EED3D
:204E360075F009A4FE80B0080EDFB00EEE9378DCF6F560ED75F009A479DBF70EEE93A2E0EE
:204E5600921A404878DE75E90075EA007F08E625E9F5E908E635EAF5EA08DFF2121DBB12DB
:204E76001DBB78DE79DF7F007E00E7B5EA04E6B5E900400B75835374002EF582EFF00E08E7
:204E96000908090FBF08E378DCBE0003024EE3BE0106756006024EE1905300E0F5F0A3E0E5
:204EB600C395F0B40606756006024EE1B4031E905300E00479B9F7A3E004F5F0C3940650EA
:204ED60002E5F079BAF7D21A75600376067408C396F5F0C3965002E5F078DDF678DDE604B7
:204EF60079DB2790510193755200B44C03755201756A00C2100250AA79DB770990022AE0FD
:204F160030E002770078DC76047513FF125044851613AB16AC14AD15125044E514C39CFC0C
:204F3600E5159DFD7513FF125076851613AA16AE14AF1512507690022AE0B4030040088B76
:204F560016751701024F7BEEC39514FEEF9515B50D04EEB50C0040088A16751700024F7B26
:204F76008B16751702203974C017C0161206E3741A1209687401120968740E12096878DE13
:204F9600861608E6121CFD121D5B78E0861608E6121CFD121D5B78E2861608E6121CFD1204
:204FB6001D5B78E4861608E6121CFD121D5B7420120968D016E5164430120968742012092A
:204FD60068D017E5174430120968742012096878DDE644301209687420120968E516B51752
:204FF6000302502078DF861178DE861079E07F0EE7F60809DFFAA61008A61178DD16151694
:20501600E51630E7D775160780D278DDE6C379DC974003F680F4E60479DB279051019375C7
:205036005200B44C037552017560040250AA7514FF7515FF75120078DE79DFE512B5130360
:2050560002506AE7B51504E6B51400500786148715851216080809090512E512B404DC22FA
:2050760075140075150075120078DE79DFE512B5130302509CE7B51504E6B51400400786F1
:20509600148715851216080809090512E512B404DCC21A229000BCE560F0A21A927DD21AA3
:2050B600756D041251C9400122900007E0B401067400F0024C1E12576CBD0003BC32005090
:2050D60005E56D30E7DDA27D921A12579105511251C9400122755100C2BB900228E0F56A89
:2050F600156A78DDE690017AF0D322524C524C524C5204024C524C524C524C040252524CA2
:205116004C5252520401524C4C52524C5204014C4C52524C4C4C04014C52524C4C524C04B2
:2051360001524C4C524C4C5203014C4C524C4C524C03014C524C4C524C4C03014C524C4CB0
:20515600524C520501524C4C524C524C05014C4C524C524C4C05014C524C524C4C520501C5
:20517600524C524C4C524C05011206E3741A1209687401120968740B120968E517121CFDC0
:20519600121D52742012096878D7861608E6121CFD121D527420120968125A9FE517121C90
:2051B600FD121D527420120968900173121CE4121D5222307446304313E552B40200503CA2
:2051D600C243122431C253C2540252949000C7E070F7C2A8C2BB122411126F70305314C224
:2051F60053201A05B2EE025207201105B2EE025209B2ED305404C254B2EFC322204375201E
:205216004504D244C322C2EF20FBEF20FAECC2EDC2EE30B5E530B4E212576C1256AF7538EB
:20523600C8D2431224C1E552B402005047125A9F75F04E900173E0F514C39516F516A3E059
:20525600F515951730E70E6316FF64FF7020E516BC0A005019D21478D7E6C395149001713F
:20527600F0A61408A3E69515F0A61575F059C289D2A8E5F0E53870069000077408F0E55263
:20529600232390529C730252AC00025330000253C4000253EB00201402C322C21412541775
:2052B600C21E78DD86F078B9E6B5F0030252CB78BAE6B5F002D21EE544600C900007E0B4E0
:2052D60001057400F0D21075F0621254ED301A2E12576CEDC313FDEC13FC78D9900178E60A
:2052F600C39CF0A308E69DF0856A6B30120BC212900175E552F07552021223DFD322304839
:205316000AD24AD24E78D0E678CFF630490AD24BD24E78CDE678CCF6C322201402C322C2DF
:2053360014125417C21D78DD86F078B9E6B5F00302534F78BAE6B5F002D21DE544600C90E6
:205356000007E0B401057400F0D210301B05C21B856B6A75F061856A6C1254ED201A24C235
:205376001E78DDE604F5F078DCC3964002F5F078B9E6B5F00302539478BAE6B5F01BD21E91
:205396000253AFE552B4001112576CBD000B7450240A8CF0B5F0005005D31223DF22D21205
:2053B60078D9900176E6F008A3E6F0025314125A9F900176E0C39516A3E0951730E702C354
:2053D60022856C6A1255BC125513056DD21BD213755203D322C213125A9F900178E0C39579
:2053F60016A3E0951730E702C322856B6A1255D0900175E0F552B402005004C289D2A8C304
:205416002275386479D7871609871779D9A71609A71778DC861778DD06E6B5170040027623
:205436000079B1B70624E62324DEF8900171E0C396FA08A3E096500A64FF700FEA64FF0267
:20545600545B7007EAB432005001229000077401F0205401221206E37E017F0E1207B374F3
:20547600201209687402120968E544703F7E017F0F1207B378DE861608E6121CFD121D5B34
:2054960078E0861608E6121CFD121D5B78E2861608E6121CFD121D5B78E4861608E6121CB2
:2054B600FD121D5BE56A121CF1121D5B78DDE675F004A404FE7F0E1207B3900171121CE4A0
:2054D600121D5B7E1E7F0E1207B378F2861608E6121CFD121D522212554475386478DD79EB
:2054F600DBE627F9905101931255D0B44C031255BCE90493755200B44C03755201156D153A
:205516006AE56A30E708900228E0F56A156AE544701B126536E56A246FF879CEE775A000A7
:20553600F2E56A2427F879D1E775A000F222E54460731206E3AFF0BF7803025584203A0C66
:2055560020102BE5F02420F5F0025584741812096820100BBF611274091209680255847436
:205576000C120968C210025584740E12096878B7E6FE7F0C1207B3E5F0B4780612096802DE
:20559600559B1207C106E6B4280976017E017F0C1207B37420120968303A0A741812096873
:2055B600740A12096822C0E0C083C082D211302402C211D082D083D0E022C0E0C083C082E5
:2055D600C211302402D211D082D083D0E022C2A8C2BBC24312576C30133BC213900176E037
:2055F600C39450FCA3E09400FD125A9F9000C2E516C39CF0FCA3E5179D30E71164FFF0EC98
:2056160064FF9000C2F0122514757F3122F01224E7757F3222125A9F79D9E7C39516FA0933
:20563600E79517FB301A3F7D007C50900222E02CFCED3400FD302406301138025657201167
:20565600329000C2EC2AF0A374003BF0122514757F33E552B40200500C900175E552F0750B
:205676005203757F342212576C900220E02CFCA3E03DFD9000C2C3EC9AF0A3ED9BF020E77C
:20569600071224E7757F352264FFF09000C2E064FFF0122514757F3622900224E030E40963
:2056B60090023DE0B40A0050077400900222F02275F006A4F5E985F0EA75ED0A75EE0012A9
:2056D6001DC9900222F022E55123239056E5730256F50002570D0002573B00025761000548
:2056F60051755C1175386475C50075C60078C47680900228E0F56D1251C9400122E56D20AC
:20571600E702C3220551125AA8125C43900228E0F56D78B1B60103025733B6061C78C5B654
:20573600000902574F1251C9400122E56D600AC378C3E6956A6002C322755103301A1230D8
:20575600240620110C0257613011061251C9400122755100D32278DDE6042324DFF8E6F549
:2057760017C313FD18E6F51613FC78D7E6C39516900173F008E69517A3F022E5447001226F
:205796001206E37E017F0F1207B378DE861608E6121CFD121D5B78E0861608E6121CFD126B
:2057B6001D5B78E2861608E6121CFD121D5B78E4861608E6121CFD121D5B78E6861608E63F
:2057D600121CFD121D5B78E8861608E6121CFD121D5B7420120968742012096878DBE612E6
:2057F6001CF1121D6D78DCE6121CF1121D6D78DDE6121CF1121D6D74201209687430A21A88
:2058160092E0120968900239121CD7121D6D307201227E017F101207B390017B121CE41242
:205836001D5B90017D121CE4121D5B90017F121CE4121D5B900181121CE4121D5B900183C2
:20585600121CE4121D5B900185121CE4121D5B74201209687420120968E57F121CF1121D04
:205876006422204702C322E55405FA232390588773025893000258D4000258F000055475AB
:205896003964301A0330111830DA1574642567126A7AC28C758A58758C9ED28CC28DD2A9CA
:2058B600301A0320111830DB1574642566126A9AC28E758B58758D9ED28EC28FD2ABE5390F
:2058D6006009206B192063160258F60554126ABA126AD6C2A9C2AB75390AE5396002C322E6
:2058F600755400753900D322301A0A2011057E0002590B7D00E55423239059137302593AB8
:2059160000025944000259830002598D00755400753906EE30E7040E126ABAED30E7040D2D
:20593600126AD622E5396001220554753904E5396025EE20E707700C126ABA80077464255C
:2059560067126A7AED20E707700C126AD6800774642566126A9A220554753906EE30E704D3
:205976000E126ABAED30E7040D126AD622E5396001220554753904E5396092EE20E707701C
:205996000C126ABA800774642567126A40ED20E706700B126AD62274642566126A5D22E5DC
:2059B6005323239059BD730259D9000259DD000259E200025A1D00025A2D00025A390002DD
:2059D6005A50000553C23E0553753B0520B029900224E0753B9620E203753B3220840F2013
:2059F600B71030B602D23E203E0A125A712220850E22D284125A6622D278E53B600122055A
:205A160053125A66753BC8E53B6001220553308410C284753B6422E53B600122125A71C256
:205A36003E055330B605D23E025A4430B703125A6620E803C2792275530630B605D23E0230
:205A56005A5B30B703125A662079012275530122900225E0B2E3A2E392CC22900225E0A2AE
:205A7600E392CC22E5C285C116B5C2F822E5C485C316B5C4F864FF6316FF22E5C685C51699
:205A9600B5C6F864FF6316FF2278F2861608E6861722C0D0C2D3D2D4900228E0F56DFE9078
:205AB600002779007A00E029F974003AFAA3D56DF589E98AEA8EED75EE00121DC979C4A792
:205AD600E9AAEDEEC313B5120050010778B1B606007DFF79C4E7FA2404FB756D0990022C02
:205AF600E0FF2BFE0EEBC39FFF7C00900228E0F8900027E0B516005005B5170050010CA39D
:205B1600D8F1ECB51518C3EB9A500364FF04FFE7C39A500364FF04B51700400780035003F0
:205B3600FDA7131BD56DB679C5A71590022DE0C333FF900248E0C333FE900228E0F56DF558
:205B5600ED90006F79007A00E029F974003AFAA3D56DF589E98AEA75EE00121DC979C1A7AA
:205B7600E9AAED900228E0C313B51200500107E7FAC39480502264FF04B51600400E78B12D
:205B9600B60609740B900007F0D0D022B517004023C374809FF7801CB51600400E78B1B652
:205BB6000609740B900007F0D0D022B51700400474802FF77DFF74802FC397B40A004002D5
:205BD600740AFBC374809FFCC3E79CB40A004002740A2BC31304F56DE72BFB90022BE0FF10
:205BF6002BFE0EEBC39FFF7C00900228E0F890006FE0B516005005B5170050010CA3D8F16A
:205C1600ECB51518C3EB9A500364FF04FFE7C39A500364FF04B51700400780035003FDA714
:205C3600131B1BD56DB579C0A715D0D022C0D0C2D3D2D47F007EFF7C007B007AFF90022866
:205C5600E0F9900027E0B5170280054003FF8C15B516005001FE0CA3D9EB900228E0F990D8
:205C7600006FE0B513004001FBB512005001FAA3D9F0EBC39A13F9900246E0B51100500B10
:205C960079B1B706067409900007F0EFC39E13F9900247E0B51100500B79B1B70606740A5C
:205CB600900007F0900228E0F511151178C3ED2402F6C395114001F678BCA61778BDA616BB
:205CD60078BEA61378BFA612D0D02278BEE678BFC396025D5B78BCE678BDC396025D5B1234
:205CF60006E37E1F7F081207B378BCE678BDC39678D2F6125D5B7E1D7F071207B3125D2186
:205D16007E1D7F061207B3125D3B2279D4770078BE86F0E678C17F62C396502164FF047F95
:205D3600617780801879D3778078C1E678BF86F07F61C396500764FF047F627700CF120717
:205D5600C1EF47F7EF7F00C31350027F05121CF1EF121DA2A7F02275818075920012619904
:205D7600D27875800075C80075E800753332E53370FC9001017400F0900225E0C2E0F002B5
:205D96005DAE75800075C80075E80075200075FA00753332E53370FC7880760018B821FA98
:205DB60078609000007400F0A3D8FCC2A8C2BB75B20075B10075B40075B300753F64754038
:205DD6003C756F05757105D271D270D2737544FF7545FF7546FFC23AC257D2ACD2AE741C05
:205DF600F599F59C753332B2861204CBE53370F9203A053057E8C257C2ACC2AEC286740475
:205E16001209687404120968740E12096874011209687401120968740E1209687402120963
:205E3600687401120968740E12096874031209687401120968740E12096874041209687481
:205E560001120968740E12096874051209687401120968740D120968740112096874191214
:205E76000968740D12096874021209687419120968740D1209687403120968741912096880
:205E9600740D12096874041209687419120968740D12096874051209687419120968303A63
:205EB6000A7418120968740A120968120751753314D25874571207C185DB218520FA90010C
:205ED600001261BF900224E030E50690010C1261BF900224E030E3069001111261BFE5335F
:205EF60070FC741C1207C1741D1207C174251207C1900101E060091207C17400F0753E64A8
:205F16007A0530B2030260E012615020E7F4FB90616CEA93B503028008906172EA93B50358
:205F3600DFDADF741C1207C1743B1207C1126124752A0030B2030260E0E52A603F30573CF2
:205F5600752A0090021EE0A2E7745A500274591207C130B2030260E0126150E52A60F33030
:205F7600500C752A0090021EE0B2E7F080D53055031261CB3053B9752A0080C712615020D7
:205F9600E7030260CE900006E0B44E03026071B454A17533FF30B2030260E0E53370028002
:205FB6009212615030E7F8900006E020E7EDB44FEE7533FF30B2030260E0E53360E3126170
:205FD6005030E7DD900006E020E7E9B44ED3745B1207C130B2030260E012615030E71190E1
:205FF6000006E020E7EDB45907120968C25A8003025EF430B2030260E012615030E7F190A5
:206016000006E030E7EA305AEAC25A75A00278287F007E21906178EF93F2080FDEF67400E2
:206036009002007F17F0A3DFFC900220F0A3F0900222F0A3F090021F7407F090018E748F0A
:20605600F07583627582007916780074FFF0A3D8FCD9FA745C1207C1025F49741C1207C177
:20607600745D1207C1C25A8024305A0AC25A741C1207C1025F3E20B25112615020E7EA24EB
:2060960030FB7A05900217E0CBF0A3DAFA7E117F0D1207B390021B7A05E075830212096815
:2060B6001582DAF580C320B22112615030E70990000620E7F1025F9FFB7A04900213E0CBF4
:2060D600F0A3DAFA1261240260BC741C1207C1741D1207C1753E00C2CDD2CF753396E53380
:2060F60070FC12075C120AF912079990021FE0B402004005B4140040037407F0D2C9D2CAA9
:20611600D247121AC1121BC77550000262327E0F7F0C1207B3900216E0243012096890023F
:2061360015E02430120968900214E02430120968900213E0243012096822E53EB40105B213
:20615600CD753E6474FF900001F0900006F01204CB900001E022000009090200000409092D
:206176000200241E0205050500192D192D233723370402020001010A00000100000000005F
:2061960050143275891175A91175A8207598D0759B9075B800759A01D2AA75AE0075ACFC62
:2061B60075AA1875AE10D2AF22740093A370012212096880F4752A001206E39002007C4997
:2061D6007F01741A1209687401120968EF1209687D037B03E0121CF1121D5B0583DBF5755A
:2061F600830205827420120968DC03026212DDE20FEFB411CD1206EE7F0180C61261503003
:206216005008752A0012075180F2305108752A0012075C80E73052E4752A00221223AC5039
:2062360003025D9890023FE06005D203026247C20385DB218520FA1204CB120F05120B3B74
:20625600122284126264126BA71264A580CEE555232390626C7302627C0002628000026490
:206276009A000264A100755600221259B5302137E541B542028030F54220760C1206F97E9B
:206296001D7F041207B3800A1206E37E1D7F091207B3E543121CF1121D64742E120968E524
:2062B60041121CF1121D93C3E55994084028900007E020E721601FE55D701BE0D2E7F075B8
:2062D6005100755200755A00755B00C218C2A8C2BBD2EC026446E55623239062F473026387
:2062F60018000263210002632F0002633E0002636A0002637D000263A20002640E00026421
:2063160050000556D27F74241207F1305801220556741D1207F1755C1CD2D3127E01C2D370
:2063360040012205560263451223DF30580122055675590075250075260078F4760078C4A4
:20635600768078C17680C23D741D1207F178B17600120A54C3E5599402400C055690000784
:206376007400F0D277D221D2D31270D8C2D3400122C3E559941B5003055922055678B176F3
:2063960006120A54900228E0F56A156A1256DD4001220556C27C78F406125CF590010274DC
:2063B60000F0900224E020E32220E61F784075A002900205E05401F060074480F07401F2EA
:2063D60008740475A002F2087400F2900102E004F014B40605740002640A9002402582F524
:2063F6008274003583F583E0B405004007900007740CF022900103F0900103E02323906426
:2064160018730264440002642C00026432000264380002643E0012789640B022127AEB40DC
:20643600AA2212835140A422127B96409E22C2EC75560878B17607120A54D2D3127E01C2DC
:20645600D3400122C3E55C94195003055C22755603D27F1247EF1206E37B017C007D007F13
:206476000B7E041207B31219D11206F97B017C007D007F0B7E041207B31219D1C277742486
:206496001207F122121EE31259B522121F40229000CCE0B550249000CDE0B5591D9000CEA7
:2064B600E0B55A169000CFE0B55B0F9000D0E0B55C089000D1E0B55D01227487120968E531
:2064D600509000CCF0121CF1121D6DE5599000CDF0121CF1121D64E55A9000CEF0121CF166
:2064F600121D64E55B9000CFF0121CF1121D64E55C9000D0F0121CF1121D64E55D9000D1CC
:20651600F0121CF1121D64748812096822C083C082C0E0900225E0A2E2D0E0D082D083226B
:20653600C0D0C2D3C2D4C248C24978D1E6FA78C4C39679D0F7500764FF24014480F77B283A
:206556007C0F90022CE0FEC3133400FD30EF0278D5E6FFEAC39F70030265E04036EBC394E6
:2065760009FBEF2D9A40030265E0EBC39409FBEF2E9A40030265E0203DFAEBC39409FBEFAE
:206596002E24089A40030265DEEBC39409FB7C190265DEEB2409FBEFC39D149A500302657F
:2065B600E0EB2409FBEFC39E149A50030265E0203DFAEB2409FBEFC39E9408149A500302E1
:2065D60065DEEB2409FB7C19D24878CEE6FA78C1C39678CDF6500764FF24014480F6900282
:2065F6002BE0FEC3133400FD78C130EF0278D6E6FFEAC39F604D40230BEF2D9A4003026620
:20661600590BEF2E9A40030266590BEF2E24089A40030266570B7C190266571BEFC39D1478
:206636009A50030266591BEFC39E149A50030266591BEFC39E9408149A50030266571B7C0B
:2066560019D249E544704D20EF059000B7ECF0900009E0703F78B8E6B503030266AA203A6E
:2066760021740612096878B8EBF67800F5F008C3940950F8E5F004120968E80412096802FB
:2066960066AA7480120968740312096878B8EBF604120968201A29E560C3132560B56100B2
:2066B600922090022BE09066F7302003906748B4040050269067993020209067EA0266F08F
:2066D60078B1B6010C90692E20110F9068DD0266F090688C20110390683BEB93F578D0D0AE
:2066F60022172737465564737271871726354453627178A7861524334251687AB6A5848848
:206716008888485A6BD5B4A38888883A4B5DE2D1C88888888C1D2EF1E8D9CABBAC9D8E1F89
:20673600F8F9EADBCCBDAE9F8FFAFAFBECDDCEBFAFAF172734556561787878871723335448
:2067560051686878A7861222434848597BB6A58488888848496CD5B48388888838395DE2BA
:20677600D1C888888818292EF1E8D8CAAA8A1A1B1FF8F9EADBCCAD8E9F8FFAFAFBECDDCEEF
:20679600BFAFAF172737465564737271871726354453627178A7868524334258687AB6A541
:2067B60084888888485A6BD5B483888888384B5DE2D1C88888888C1D2EF1E8D8CABBAC8DBD
:2067D6008E1FF8F9EADBCCBDAE9F8FFAFAFBECDDCEBFAFAF172737445463727878871726A2
:2067F600334352616878A7861333324858597BA6158288888848496CD5B48388888838397A
:206816005DE2D1C888888818292EF1E8D8CABB8C1A1B1FF8F9EADBCCAD8E8F8FFAFAFBECB7
:20683600DDCEBFAFAF87878786858483828887878685848382888A878685848382888A8B5D
:206856008685848888888A8B8C8584838888888B8C8D8483828888888C8D8E8382888A8B28
:206876008C8D8E8F82888A8B8C8D8E8F8F888A8B8C8D8E8F8F8F882838485868787878A8F7
:206896008828384858687878B8A888283848586878C8B8A8888888485868D8C8B888888882
:2068B600384858E8D8C8888888283848F8E8D8C8B8A8882838F8F8E8D8C8B8A88828F8F8E2
:2068D600F8E8D8C8B8A8888787878685848382828787868584838282828786858483828846
:2068F6008888868584838288888B8C858483828888888C8D848382888A8A8A8D8E88888896
:206916008A8B8C8D8E8F8A8A8A8B8C8D8E8F8F8A8A8B8C8D8E8F8F8F2828384858687878B5
:2069360078282828384858687878888888283848586878C8B888882838485868D8C8888801
:206956008828384858E8D8A8A8A888283848F8E8D8C8B8A8888888F8F8E8D8C8B8A8A8A811
:20697600F8F8F8E8D8C8B8A8A8306B05756900803E306A3B900225E020E016E5327030C252
:206996006DE55EC3956750027400F569B56100401ED26D206F19E56325672414F5F0E569B4
